{
  "contractName": "ChainList",
  "abi": [
    {
      "inputs": [],
      "stateMutability": "nonpayable",
      "type": "constructor"
    },
    {
      "anonymous": false,
      "inputs": [
        {
          "indexed": false,
          "internalType": "string",
          "name": "data",
          "type": "string"
        }
      ],
      "name": "Info",
      "type": "event"
    },
    {
      "anonymous": false,
      "inputs": [
        {
          "indexed": true,
          "internalType": "uint256",
          "name": "_id",
          "type": "uint256"
        },
        {
          "indexed": true,
          "internalType": "address",
          "name": "_seller",
          "type": "address"
        },
        {
          "indexed": true,
          "internalType": "address",
          "name": "_buyer",
          "type": "address"
        },
        {
          "indexed": false,
          "internalType": "string",
          "name": "_name",
          "type": "string"
        },
        {
          "indexed": false,
          "internalType": "uint256",
          "name": "_price",
          "type": "uint256"
        }
      ],
      "name": "LogBuyArticle",
      "type": "event"
    },
    {
      "anonymous": false,
      "inputs": [
        {
          "indexed": true,
          "internalType": "uint256",
          "name": "_id",
          "type": "uint256"
        },
        {
          "indexed": true,
          "internalType": "address",
          "name": "_seller",
          "type": "address"
        },
        {
          "indexed": true,
          "internalType": "address",
          "name": "_buyer",
          "type": "address"
        },
        {
          "indexed": false,
          "internalType": "string",
          "name": "_name",
          "type": "string"
        },
        {
          "indexed": false,
          "internalType": "uint256",
          "name": "_price",
          "type": "uint256"
        }
      ],
      "name": "LogSellArticle",
      "type": "event"
    },
    {
      "inputs": [
        {
          "internalType": "uint256",
          "name": "",
          "type": "uint256"
        }
      ],
      "name": "articles",
      "outputs": [
        {
          "internalType": "uint256",
          "name": "id",
          "type": "uint256"
        },
        {
          "internalType": "address payable",
          "name": "seller",
          "type": "address"
        },
        {
          "internalType": "address",
          "name": "buyer",
          "type": "address"
        },
        {
          "internalType": "string",
          "name": "name",
          "type": "string"
        },
        {
          "internalType": "string",
          "name": "description",
          "type": "string"
        },
        {
          "internalType": "uint256",
          "name": "price",
          "type": "uint256"
        }
      ],
      "stateMutability": "view",
      "type": "function",
      "constant": true
    },
    {
      "inputs": [],
      "name": "kill",
      "outputs": [],
      "stateMutability": "nonpayable",
      "type": "function"
    },
    {
      "inputs": [
        {
          "internalType": "string",
          "name": "_name",
          "type": "string"
        },
        {
          "internalType": "string",
          "name": "_description",
          "type": "string"
        },
        {
          "internalType": "uint256",
          "name": "_price",
          "type": "uint256"
        }
      ],
      "name": "sellArticle",
      "outputs": [],
      "stateMutability": "nonpayable",
      "type": "function"
    },
    {
      "inputs": [],
      "name": "getNumberOfArticles",
      "outputs": [
        {
          "internalType": "uint256",
          "name": "",
          "type": "uint256"
        }
      ],
      "stateMutability": "view",
      "type": "function",
      "constant": true
    },
    {
      "inputs": [],
      "name": "getArticlesForSale",
      "outputs": [
        {
          "internalType": "uint256[]",
          "name": "",
          "type": "uint256[]"
        }
      ],
      "stateMutability": "view",
      "type": "function",
      "constant": true
    },
    {
      "inputs": [
        {
          "internalType": "uint256",
          "name": "_id",
          "type": "uint256"
        }
      ],
      "name": "buyArticle",
      "outputs": [],
      "stateMutability": "payable",
      "type": "function",
      "payable": true
    }
  ],
  "bytecode": "0x608060405234801561001057600080fd5b50600080546001600160a01b0319338181169190921617179055610c1f806100396000396000f3fe6080604052600436106100555760003560e01c80631cc4baa81461005a57806341c0e1b51461006f5780637f6be3da1461008457806389da85d3146100af578063d2609515146100cd578063edcfafe6146100ed575b600080fd5b61006d610068366004610840565b61011f565b005b34801561007b57600080fd5b5061006d61024b565b34801561009057600080fd5b50610099610270565b6040516100a69190610859565b60405180910390f35b3480156100bb57600080fd5b506002546040519081526020016100a6565b3480156100d957600080fd5b5061006d6100e8366004610940565b61053b565b3480156100f957600080fd5b5061010d610108366004610840565b610654565b6040516100a696959493929190610a09565b60006002541161012e57600080fd5b60008111801561014057506002548111155b61014957600080fd5b600081815260016020526040902060028101546001600160a01b03161561016f57600080fd5b60018101546001600160a01b031633141561018957600080fd5b8060050154341461019957600080fd5b6002810180546001600160a01b0319163317905560018101546040516001600160a01b0391909116903480156108fc02916000818181858888f193505050501580156101e9573d6000803e3d6000fd5b5060028101546001820154825460058401546040516001600160a01b0394851694909316927f5d28bc06e6f0c45405abfe77bd77236c767f9bd9d044ae2d954a415a2b4823e09161023f91600388019190610a9c565b60405180910390a45050565b6000546001600160a01b0316331461026257600080fd5b6000546001600160a01b0316ff5b606060025460001415610290575060408051600081526020810190915290565b6040805160208101909152600080825260025467ffffffffffffffff8111156102bb576102bb61089d565b6040519080825280602002602001820160405280156102e4578160200160208202803683370190505b509050600060015b600254811161041d578360405180604001604052806002815260200161203160f01b815250604051602001610322929190610b4c565b60408051601f198184030181529181526000838152600160205220600201549094506001600160a01b031661040b578360405180604001604052806002815260200161101960f11b81525060405160200161037e929190610b4c565b60408051601f198184030181529181526000838152600160205220548451919550908490849081106103b2576103b2610b88565b6020026020010181815250508360405180604001604052806002815260200161203360f01b8152506040516020016103eb929190610b4c565b6040516020818303038152906040529350818061040790610b9e565b9250505b8061041581610b9e565b9150506102ec565b5060008167ffffffffffffffff8111156104395761043961089d565b604051908082528060200260200182016040528015610462578160200160208202803683370190505b50905060005b828110156104f7578460405180604001604052806002815260200161080d60f21b81525060405160200161049d929190610b4c565b60405160208183030381529060405294508381815181106104c0576104c0610b88565b60200260200101518282815181106104da576104da610b88565b6020908102919091010152806104ef81610b9e565b915050610468565b508360405180604001604052806002815260200161203560f01b815250604051602001610525929190610b4c565b60408051601f1981840301905252949350505050565b6002805490600061054b83610b9e565b90915550506040805160c081018252600280548083523360208085019182526000858701818152606087018b8152608088018b905260a088018a905294825260018084529790912086518155925196830180546001600160a01b039889166001600160a01b03199182161790915590519483018054959097169416939093179094555180519293926105e392600385019201906107a7565b50608082015180516105ff9160048401916020909101906107a7565b5060a0919091015160059091015560025460405160009133917f269563641cd8facbb1a35b5b474025b41af716766a4d49173ad22faaa93658e7906106479088908790610bc7565b60405180910390a4505050565b600160208190526000918252604090912080549181015460028201546003830180546001600160a01b0393841694929093169261069090610a61565b80601f01602080910402602001604051908101604052809291908181526020018280546106bc90610a61565b80156107095780601f106106de57610100808354040283529160200191610709565b820191906000526020600020905b8154815290600101906020018083116106ec57829003601f168201915b50505050509080600401805461071e90610a61565b80601f016020809104026020016040519081016040528092919081815260200182805461074a90610a61565b80156107975780601f1061076c57610100808354040283529160200191610797565b820191906000526020600020905b81548152906001019060200180831161077a57829003601f168201915b5050505050908060050154905086565b8280546107b390610a61565b90600052602060002090601f0160209004810192826107d5576000855561081b565b82601f106107ee57805160ff191683800117855561081b565b8280016001018555821561081b579182015b8281111561081b578251825591602001919060010190610800565b5061082792915061082b565b5090565b5b80821115610827576000815560010161082c565b60006020828403121561085257600080fd5b5035919050565b6020808252825182820181905260009190848201906040850190845b8181101561089157835183529284019291840191600101610875565b50909695505050505050565b634e487b7160e01b600052604160045260246000fd5b600082601f8301126108c457600080fd5b813567ffffffffffffffff808211156108df576108df61089d565b604051601f8301601f19908116603f011681019082821181831017156109075761090761089d565b8160405283815286602085880101111561092057600080fd5b836020870160208301376000602085830101528094505050505092915050565b60008060006060848603121561095557600080fd5b833567ffffffffffffffff8082111561096d57600080fd5b610979878388016108b3565b9450602086013591508082111561098f57600080fd5b5061099c868287016108b3565b925050604084013590509250925092565b60005b838110156109c85781810151838201526020016109b0565b838111156109d7576000848401525b50505050565b600081518084526109f58160208601602086016109ad565b601f01601f19169290920160200192915050565b8681526001600160a01b0386811660208301528516604082015260c060608201819052600090610a3b908301866109dd565b8281036080840152610a4d81866109dd565b9150508260a0830152979650505050505050565b600181811c90821680610a7557607f821691505b60208210811415610a9657634e487b7160e01b600052602260045260246000fd5b50919050565b60408152600080845481600182811c915080831680610abc57607f831692505b6020808410821415610adc57634e487b7160e01b86526022600452602486fd5b6040880184905260608801828015610afb5760018114610b0c57610b37565b60ff19871682528282019750610b37565b60008c81526020902060005b87811015610b3157815484820152908601908401610b18565b83019850505b50509690960196909652509095945050505050565b60008351610b5e8184602088016109ad565b602d60f81b9083019081528351610b7c8160018401602088016109ad565b01600101949350505050565b634e487b7160e01b600052603260045260246000fd5b6000600019821415610bc057634e487b7160e01b600052601160045260246000fd5b5060010190565b604081526000610bda60408301856109dd565b9050826020830152939250505056fea2646970667358221220a91c2fc240b554c6bcc5b0d90abb1431c71e398c455da549865ff71af2195d0c64736f6c634300080b0033",
  "immutableReferences": {},
  "source": "// SPDX-License-Identifier: MIT\npragma solidity ^0.8.11;\nimport \"./Ownable.sol\";\n\ncontract ChainList is Ownable {\n    //custom types\n    struct Article {\n        uint256 id;\n        address payable seller;\n        address buyer;\n        string name;\n        string description;\n        uint256 price;\n    }\n\n    //state variables\n    mapping(uint256 => Article) public articles;\n    uint256 articleCounter;\n\n    //events\n    event LogSellArticle(\n        uint256 indexed _id,\n        address indexed _seller,\n        address indexed _buyer,\n        string _name,\n        uint256 _price\n    );\n\n    event LogBuyArticle(\n        uint256 indexed _id,\n        address indexed _seller,\n        address indexed _buyer,\n        string _name,\n        uint256 _price\n    );\n\n    event Info(string data);\n\n    constructor() {\n        owner = payable(msg.sender);\n    }\n\n    function kill() public onlyOwner {\n        selfdestruct(owner);\n    }\n\n    function sellArticle(\n        string memory _name,\n        string memory _description,\n        uint256 _price\n    ) public {\n        articleCounter++;\n        articles[articleCounter] = Article(\n            articleCounter,\n            payable(msg.sender),\n            address(0),\n            _name,\n            _description,\n            _price\n        );\n\n        emit LogSellArticle(\n            articleCounter,\n            msg.sender,\n            address(0),\n            _name,\n            _price\n        );\n    }\n\n    // function getArticle()\n    //     public\n    //     view\n    //     returns (\n    //         address _seller,\n    //         address _buyer,\n    //         string memory _name,\n    //         string memory _description,\n    //         uint256 _price\n    //     )\n    // {\n    //     return (seller, buyer, name, description, price);\n    // }\n\n    function getNumberOfArticles() public view returns (uint256) {\n        return articleCounter;\n    }\n\n    function getArticlesForSale() public view returns (uint256[] memory) {\n        if (articleCounter == 0) {\n            //emit Info(\"No article\");\n            uint256[] memory emptyArray = new uint256[](0);\n            return (emptyArray);\n        }\n\n        string memory log = \"\";\n        uint256[] memory articleIds = new uint256[](articleCounter);\n        uint256 numberOFArticlesForSales = 0;\n        for (uint256 index = 1; index <= articleCounter; index++) {\n            log = string(bytes.concat(bytes(log), \"-\", bytes(\" 1\")));\n            if (articles[index].buyer == address(0)) {\n                log = string(bytes.concat(bytes(log), \"-\", bytes(\" 2\")));\n                articleIds[numberOFArticlesForSales] = articles[index].id;\n                log = string(bytes.concat(bytes(log), \"-\", bytes(\" 3\")));\n                numberOFArticlesForSales++;\n            }\n        }\n\n        uint256[] memory forSale = new uint256[](numberOFArticlesForSales);\n        for (uint256 index = 0; index < numberOFArticlesForSales; index++) {\n            log = string(bytes.concat(bytes(log), \"-\", bytes(\" 4\")));\n            forSale[index] = articleIds[index];\n        }\n        log = string(bytes.concat(bytes(log), \"-\", bytes(\" 5\")));\n        return (forSale);\n    }\n\n    function buyArticle(uint256 _id) public payable {\n        // require(seller != address(0));\n        // require(buyer == address(0));\n        // require(msg.sender != seller);\n        // require(msg.value == price);\n        // buyer = msg.sender;\n        // seller.transfer(msg.value);\n        // emit LogBuyArticle(seller, msg.sender, name, msg.value);\n\n        require(articleCounter > 0);\n        require(_id > 0 && _id <= articleCounter);\n        Article storage article = articles[_id];\n        require(article.buyer == address(0));\n        require(msg.sender != article.seller);\n        require(msg.value == article.price);\n\n        article.buyer = msg.sender;\n        article.seller.transfer(msg.value);\n        emit LogBuyArticle(\n            article.id,\n            article.seller,\n            article.buyer,\n            article.name,\n            article.price\n        );\n    }\n}\n",
  "sourcePath": "/home/clem/ChainSkills/Trainings/chainList2/contracts/ChainList.sol",
  "compiler": {
    "name": "solc",
    "version": "0.8.11+commit.d7f03943.Emscripten.clang"
  },
  "schemaVersion": "3.4.4",
  "updatedAt": "2022-04-25T21:54:43.763Z",
  "networkType": "ethereum",
  "devdoc": {
    "kind": "dev",
    "methods": {},
    "version": 1
  },
  "userdoc": {
    "kind": "user",
    "methods": {},
    "version": 1
  }
}