{
  "contractName": "Greetings",
  "abi": [
    {
      "inputs": [],
      "stateMutability": "nonpayable",
      "type": "constructor"
    },
    {
      "inputs": [
        {
          "internalType": "string",
          "name": "_message",
          "type": "string"
        }
      ],
      "name": "setGreetings",
      "outputs": [],
      "stateMutability": "nonpayable",
      "type": "function"
    },
    {
      "inputs": [],
      "name": "getGreetings",
      "outputs": [
        {
          "internalType": "string",
          "name": "",
          "type": "string"
        }
      ],
      "stateMutability": "view",
      "type": "function"
    }
  ],
  "bytecode": "0x608060405234801561001057600080fd5b506040805180820190915260098082526849276d20726561647960b81b602090920191825261004191600091610047565b5061011b565b828054610053906100e0565b90600052602060002090601f01602090048101928261007557600085556100bb565b82601f1061008e57805160ff19168380011785556100bb565b828001600101855582156100bb579182015b828111156100bb5782518255916020019190600101906100a0565b506100c79291506100cb565b5090565b5b808211156100c757600081556001016100cc565b600181811c908216806100f457607f821691505b6020821081141561011557634e487b7160e01b600052602260045260246000fd5b50919050565b61033d8061012a6000396000f3fe608060405234801561001057600080fd5b50600436106100365760003560e01c806349da5de41461003b578063ca4c3a4114610050575b600080fd5b61004e6100493660046101c6565b61006e565b005b610058610085565b6040516100659190610277565b60405180910390f35b8051610081906000906020840190610117565b5050565b606060008054610094906102cc565b80601f01602080910402602001604051908101604052809291908181526020018280546100c0906102cc565b801561010d5780601f106100e25761010080835404028352916020019161010d565b820191906000526020600020905b8154815290600101906020018083116100f057829003601f168201915b5050505050905090565b828054610123906102cc565b90600052602060002090601f016020900481019282610145576000855561018b565b82601f1061015e57805160ff191683800117855561018b565b8280016001018555821561018b579182015b8281111561018b578251825591602001919060010190610170565b5061019792915061019b565b5090565b5b80821115610197576000815560010161019c565b634e487b7160e01b600052604160045260246000fd5b6000602082840312156101d857600080fd5b813567ffffffffffffffff808211156101f057600080fd5b818401915084601f83011261020457600080fd5b813581811115610216576102166101b0565b604051601f8201601f19908116603f0116810190838211818310171561023e5761023e6101b0565b8160405282815287602084870101111561025757600080fd5b826020860160208301376000928101602001929092525095945050505050565b600060208083528351808285015260005b818110156102a457858101830151858201604001528201610288565b818111156102b6576000604083870101525b50601f01601f1916929092016040019392505050565b600181811c908216806102e057607f821691505b6020821081141561030157634e487b7160e01b600052602260045260246000fd5b5091905056fea2646970667358221220d1e83930811aa844fab76f6737fbe4f80bb30a92a9beb48e63684f83891dd43664736f6c634300080b0033",
  "immutableReferences": {},
  "source": "// SPDX-License-Identifier: MIT\npragma solidity ^0.8.11;\n\ncontract Greetings {\n  string message;\n\n  constructor() {\n    message =\"I'm ready\";\n  }\n\n  function setGreetings (string memory _message) public {\n    message = _message;\n  }\n\n  function getGreetings() public view returns (string memory) {\n    return message;\n  }\n}",
  "sourcePath": "/home/clem/ChainSkills/Trainings/chainList2/contracts/Greetings.sol",
  "compiler": {
    "name": "solc",
    "version": "0.8.11+commit.d7f03943.Emscripten.clang"
  },
  "schemaVersion": "3.4.4",
  "updatedAt": "2022-04-25T21:53:43.233Z",
  "devdoc": {
    "kind": "dev",
    "methods": {},
    "version": 1
  },
  "userdoc": {
    "kind": "user",
    "methods": {},
    "version": 1
  }
}